:020000040800F2
:1044000038D50020957800081D4F00081F4F000880
:10441000214F0008234F0008254F0008000000002E
:10442000000000000000000000000000274F00080E
:10443000294F000800000000337800082D4F0008C5
:10444000AF780008AF780008AF780008AF780008B0
:10445000AF780008AF780008AF780008AF780008A0
:10446000AF780008AF780008AF780008AF78000890
:10447000AF780008AF7800086B4F00083F4F000886
:10448000AF780008AF780008AF780008AF78000870
:10449000AF780008AF780008AF780008AF78000860
:1044A000AF780008AF780008AF780008AF78000850
:1044B000AF780008AF780008AF780008AF78000840
:1044C000AF780008AF780008AF780008AF78000830
:1044D000AF780008934F0008AF780008AF78000865
:1044E000AF780008AF780008AF780008AF78000810
:1044F000AF780008AF780008AF780008AF78000800
:10450000AF780008AF780008AF780008AF780008EF
:10451000AF780008AF780008AF780008AF780008DF
:10452000AF780008AF780008AF780008AF780008CF
:10453000DFF80CD003F012FD00480047B74D00082B
:1045400038D50020EFF30980704780F30988704761
:10455000EFF30880704780F30888704740BA7047CF
:10456000C0BA70470A22B0FBF2F302FB1302C9B2D1
:1045700063F34701032A02D941F0010001E021F071
:104580000100072A06D9012101EB500161F3470020
:1045900020F00100704710B50446C0B201F0FBF9ED
:1045A000142003F0B5F8E0B2BDE81040002101F09E
:1045B000F2B9C0B201F013BA30B5034600208C2422
:1045C0000EE000BF13F8012B50400022C50702D0B7
:1045D00084EA500000E04008521CD2B2082AF5D309
:1045E000491E89B2EED230BD00210A464254491C10
:1045F0000829FBDB7047028801238B401A430280A5
:104600007047028801238B409A430280704710B59F
:104610000022835C8C5CA34201D0002010BD521CA0
:10462000082AF6DB012010BDF0B50E46074600242F
:1046300016F83400282812D1002506EBC40C00BF60
:1046400017F83500282805D107EBC5016046FFF7AC
:10465000DEFF10B96D1C102DF2DB102D09D0641C8B
:10466000102CE5DB5FF0000517F83500282814D181
:1046700001E0601CF0BD002407EBC50C16F8340007
:10468000282805D1614606EBC400FFF7C0FF10B92A
:10469000641C102CF2DB102C04D06D1C102DE3DBFD
:1046A0000020F0BDE843F0BD00228B5C8354521C17
:1046B000082AFADB7047F0B5002607464FEA0604E1
:1046C00017F8340028280CD107EBC4052846072129
:1046D000FFF772FFE979884203D02846761CFFF77E
:1046E00083FF641C102CEBDB3046F0BD2DE9F84F46
:1046F0000026FB4C05463346A24604EBC300FFF7F9
:1047000073FF5B1CDBB2102BF6D3F54800F0BDFD48
:10471000F348FFF7D0FFF348F14900EBC51004461A
:10472000FFF782FFF049071E4FF0000801EB450B31
:1047300047DDE8B201F077F9DFF8B0834FF0010907
:104740000090C82002F0E4FF0020C8F8B4014FF444
:10475000967002F0DDFFC8F8B491E8B201F063F999
:104760000099142E80EA010C04D8761CF6B2BCF134
:10477000000FE6D0DC481438007810B10021C8F8EA
:10478000B411BCF1000F34D000250AEBC706083E77
:1047900009FA05F010EA0C0F08D004EBC500314609
:1047A000FFF782FF58462946FFF725FF6D1CEDB243
:1047B000102DEDD3CC4814380069BDE8F84F02F055
:1047C00093BD16DAC043C6B22046314600F0FAFD6A
:1047D00000280ED104EBC600FFF706FF584631460D
:1047E000FFF70FFFBE49803101EB451121F816801C
:1047F000E0E7BDE8F88F08B500F034FEDFF8F0928E
:104800004FF00D0B4FF0010A4FF47A7002F080FF69
:104810005FF0000404EBC40209EB0211ADF800B034
:10482000B1F886100020524602FA00F3194201D076
:10483000ADF80000401C1028F6DB684600F017FDBC
:10484000A9481438007828B12046FFF74FFF0A2006
:1048500002F05EFFA348002500EBC41700F50070CE
:1048600000EB44164FEA050817F8350028280FD04A
:1048700026F815800A2002F04BFF6D1C102DF3DB8B
:104880004FF4FA7002F044FF641C032CC2DBBBE758
:10489000E9B2384600F096FD26F81500EAE72DE962
:1048A000F0470446022845DC924E6000002731792B
:1048B00060F306013171E0B201F0B5F8DFF828A22B
:1048C00084460AF106091AF81400F07186F805C04A
:1048D00019F81400B07182480025803000EB4418AC
:1048E00007EB470006EB800638F81500FFF73AFEA5
:1048F00071196D1C0872082DF6DB012000EB4401D4
:10490000307C61F3060030743AF81400000AF07449
:104910004FEA1C20707439F81400000AB0740024A7
:1049200008EB4400008AFFF71DFE3119641C08756E
:10493000082CF5DBBDE8F0876B48143880680179F6
:104940004279837901EA11111A401143C279007A40
:104950000240114301D0002070470120704792B0FF
:1049600000268DF840601C2109A803F056F80121AB
:10497000614801F072FE5C4D604FDFF870A1143D9C
:104980005F4C4FF0010905F11A0B10AA42F21071A9
:10499000386802F01DFC9DF840000A2802D030B1B2
:1049A00058A010E15DA000F06CFB6E600DE10120ED
:1049B00002F0AEFE0A215248C5F8049001F024F935
:1049C000B0F1000822DD617A227AE379CDE906218F
:1049D000CDF820800593E0780DF1040CA37962797D
:1049E00021798CE80F00A07800906378227850A19C
:1049F00009A803F021FB09A800F043FB42460A2165
:104A00003F4801F0EEF800F03EFD02E001DA53A06D
:104A1000D9E0FFF791FF00285FD0A868417A4FEAFC
:104A2000510801F001010091007900F00F000C28FD
:104A30001CD006DC032821D0042808D0072804D184
:104A400023E00E2828D00F2848D049A0BBE04BA077
:104A500000F017FBA8684179009818B14FF6FF7075
:104A600000EA01214046FFF796FDC7E046A000F0AE
:104A700008FB85F80090CAF8B461BFE046A000F0DA
:104A800000FB2E70CAF8B491B8E047A000F0F9FA24
:104A9000E86802F029FCB1E046A000F0F2FA0098C4
:104AA0000028584608D010F8181020F81810AA68E6
:104AB000D27901EB022108E030F8181001F47F41AF
:104AC00020F81810AA68D27911442BF81810404623
:104AD0003BF81810FFF76DFD90E073E06EE000000A
:104AE000E0030020600200201400002000002242A9
:104AF0005C000020C0C60020580002402C000020AE
:104B0000DCC6002053656D5F726563762065727246
:104B100020756E6B6E6F77210000000053656D5F2E
:104B2000726563762074696D656F7574210000008D
:104B300025582C25582C25582C25582C25582C2503
:104B4000582C25582C25582C25582C2558216D6F6C
:104B500076654C6566744B202564000063616E6E5B
:104B60006F742066696E642050504121000000007F
:104B7000756E6B6E6F7720636D640000636D645FAC
:104B8000646F6F7200000000636D645F686F747023
:104B90006C6167696E000000636D645F686F7470BC
:104BA0006C61676F75740000636D645F676F746F2D
:104BB00069617000636D645F66616E00B1A000F0B2
:104BC00060FA1BE0B2A000F05CFAA0790DF1100CC5
:104BD000637A227AE1798CE80F00A07863792279F0
:104BE000E1788DE80F0063782278B0A109A803F07E
:104BF00013FA09A800F045FA00F045FC0121B3487A
:104C000001F02BFDC1E600204FF0E021421EC1F86B
:104C10008021530DC1F88431C1F88022C1F884325B
:104C20004FEA000100F1E02282F80014401C0B283A
:104C3000F8D3704708B500208DF800000446A4485A
:104C40005021A44E01704170412181700221C17038
:104C50006A46FA21F06802F0BBFA9DF80000B0B194
:104C600070680028F4D02046FFF719FE9A486A467B
:104C70000021006802F0ACFA94480121143801F0D8
:104C8000ECFC641CE4B2022CE2D90024E0E702F060
:104C9000AFFD0746FFF7B7FF4FF000652868FFF745
:104CA00054FC002080F314882868FFF754FC6868DF
:104CB0008047384602F0A0FDCAE708B50020854EBF
:104CC000864D8DF800004FF4C0746A4600213069AB
:104CD00002F07EFA22468249284600F014FFF4E7EB
:104CE00000B585B0684601F0F5F901984FF47A7186
:104CF000B0FBF1F0B0F1807F0DD220F07F414FF09A
:104D0000E020491E4161774AF02182F8141D0021FC
:104D100081610721016100F0F7FD00F080F80523B3
:104D2000714A0021714802F04BFB0623704A0021B2
:104D3000704802F045FB07236F4A00216F4802F0DC
:104D40003FFB634A0823121F00216D4802F038FB25
:104D500000B1FEE705B0FF205DF804EB02F0B2BB46
:104D600010B501F0F5F84FF48034204601F009F950
:104D700001F034F901281DD1002001F067F900206D
:104D800001F072F9A01101F068F94FF4E01120462A
:104D900001F045F9012001F04AF9392001F009F943
:104DA0000028FAD0022001F045F900BF01F049F9CE
:104DB0000828FBD110BD10B5FFF725FF01F05BFF00
:104DC0004FF4E13000F0FAF84EA000F05AF94F49E4
:104DD0003F48086000F04EFB002002F074F93D4CA3
:104DE000E060002002F06FF949490860012002F0FC
:104DF0006AF939490860002002F065F9206104234E
:104E0000444A0021444802F0DBFA4FF488414FF055
:104E1000006000F043FF01F0D8FF002010BD2DE935
:104E2000F0414FF4C0722E492C4800F060FEDFF8CC
:104E3000A480DFF8ACC0002608F1140800250CEBB4
:104E4000C61708EB460400BF17F8350028280FD016
:104E500007EBC500FFF7C8FB20462946FFF7D1FB4B
:104E60006D1C102DF0DB761C032EE7DBBDE8F08116
:104E700020462946FFF7BFFB20462946FFF7BBFB2C
:104E8000EEE70000636D645F676574696E666F00CE
:104E900043686563684D61696E324D6963726F4442
:104EA00061746520657272210000000025582C2570
:104EB000582C25582C25582C25582C25582C25584D
:104EC0002C25582C25582C2558210000580002402C
:104ED000C0C60020000000203000002000000108B3
:104EE000600200200FE000E0BC640020F7470008EB
:104EF000BCB400205F490008BCB60020354C000857
:104F0000BB4C00087374617274000000280000201C
:104F10002C000020BC140020E14C00087047FEE784
:104F2000FEE7FEE7FEE770477047704710B501F0F7
:104F300018FF01F05EFFBDE8104001F01CBF10B586
:104F400001F00FFF0021134801F087FB4FF4003000
:104F500001F0A9FB1048006802F0C6F90FA000F0AC
:104F600090F8BDE8104001F006BF10B501F0F9FE61
:104F70004FF4005001F097FB06480021143801F06F
:104F80006CFB0D48006802F0AFF9BDE8104001F07D
:104F9000F2BE7047580002402C000020444D4131C1
:104FA0005F4368616E6E656C355F49525148616E52
:104FB000646C6572000000003000002030B50446CB
:104FC00085B00121112001F0CEF80121880401F003
:104FD000D3F80121394800F06BFF4FF48060ADF841
:104FE000100003208DF812001820354D8DF81300A5
:104FF00004A9284600F0CDFEE814ADF81000042006
:105000008DF8130004A9284600F0C3FE0020ADF877
:1050100004000094ADF80600ADF80800ADF80C00EF
:105020000C20284CADF80A006946204601F01AF918
:105030000121204601F089F905B030BD70B5214C41
:105040000546C1B2204601F0D6F920880006FCD5FD
:10505000284670BD10B51B4C2021204601F02CFACB
:105060000028F9D0204601F0CAF9C0B210BD154899
:1050700001888906FCD51348001D0088C0F308008C
:10508000704770B505460F4C06E0204601F0B3F9B5
:1050900020880006FCD56D1C29780029F5D10D214A
:1050A000204601F0A8F920880006FCD50A212046F8
:1050B00001F0A1F920880006FCD570BD1000140095
:1050C000001001400048004070477047E649E74A39
:1050D00001204968098802EB8101C1F8800170470D
:1050E000E149E24A00204968098802EB8101C1F8E0
:1050F00080017047DC48DD494068008801EB800092
:10510000D0F80001C0B2704770B54FF0E024002223
:1051100065692B214843A169A3698B42FCD002D267
:10512000A1EB030102E0A5EB030631440A44194652
:105130008242F1D370BD10B50024FFF7D1FF40F2D9
:10514000EE20FFF7E1FFFFF7C1FF0C2002E0641C37
:10515000E4B20120FFF7D8FFFFF7CCFF10B1C82C55
:10516000F5D30DE0C82C0BD2002404E0641CE4B29B
:105170000120FFF7C9FFFFF7BDFF18B1F02C04D3E2
:10518000012010BDF02CF1D3FAE7002010BD10B5BE
:10519000FFF7A6FF0120FFF7B7FFFFF797FF0A20F1
:1051A000FFF7B2FFFFF7A6FF08B1012400E00024DB
:1051B0003220FFF7A9FF204610BD30B5002501249D
:1051C000FFF7E5FFC001641C40EA5500E4B2C5B238
:1051D000082CF5D9284630BD00B540B1FFF780FF57
:1051E0000120FFF791FFFFF771FF3C2007E0FFF779
:1051F00077FF3C20FFF788FFFFF768FF01205DF88D
:1052000004EB81E730B505465FF0010415F0010FAE
:105210004FEA550508D0FFF763FF0120FFF774FF41
:10522000FFF754FF3C2007E0FFF75AFF3C20FFF751
:105230006BFFFFF74BFF0120FFF766FF641CE4B232
:10524000082CE3D930BD00EB400101EBC000401E4B
:10525000FDD2704770B5844C0546206802F0CCFA48
:10526000A8B202F055FA02F0C3FA206070BD7E4980
:1052700048607047FFF734FF0220FFF745FFFFF754
:1052800025FF0C20FFF740FFF4E72DE9F14F96B022
:105290004FF00008142110A802F0BFFB402168461F
:1052A00002F0BBFB02F0A4FADFF8BCA1C4460DF18A
:1052B000400BCAF8000000BFFFF73DFFF020FFF7EA
:1052C000A1FF0025002426466408FFF760FF07467B
:1052D000FFF75DFF17B1012F0BD00BE0012809D1BB
:1052E0000020FFF779FF06EBC50100220DF8012031
:1052F00042E048B1074312D0DAF8000002F07CFA2D
:10530000002017B0BDE8F08F44F080040120FFF7C3
:1053100063FF06EBC50201200DF802002CE006EB4E
:10532000C50909F10100C7B21BF80800B8420DD247
:105330004FF00000FFF750FF00200DF8090008F1C2
:10534000010000F0FF080BF8087015E008D91DF8FF
:10535000090000F0010144EAC114FFF73DFF0BE032
:1053600044F080040120FFF737FF0121A8F101007C
:105370000DF8091000F0FF08761CF6B2082EA3D332
:10538000169800EBCC0044556D1CEDB2082D99D356
:105390000CF1010C1BF808000CF0FF0C10B1BCF173
:1053A000100F89D3DAF8000002F026FA0120A8E7EE
:1053B00000B5FFF7C0FECC20FFF724FF44205DF8C6
:1053C00004EB1FE72DE9F0410E46074602F010FA04
:1053D000254D2860FFF7ECFFFFF7ADFE5520FFF7E6
:1053E00011FF002407EBC606305DFFF70BFF641CBE
:1053F000E4B2082CF8D34420FFF704FFFFF79BFE2C
:105400005520FFF7FFFE0024305DFFF7FBFE641C14
:10541000E4B2082CF8D3BE20FFF7F4FEFFF7CDFE70
:105420000446FFF7CAFE072805D9C043E143C0B2CE
:10543000CCB2002600E0012604EB002000B202F00E
:1054400069FB00220A4B02F0F3FA02F074FB04B28B
:10545000286802F0D1F916B12046BDE8F08160421B
:1054600000B2FAE767E600002000002000002242B8
:105470000000E43F10B500F044F800F057F8BDE834
:10548000104000F08CB810B5834C0021204601F08C
:10549000E4F800F036F80A21204601F0F1F8204641
:1054A000BDE81040012101F0D8B870B50C460546A2
:1054B00001218CB0084600F04DFE774E143E304678
:1054C00001F034F87548CDE900051020CDE902045B
:1054D00000208021CDE904018901CDE90801069071
:1054E00007900A906946304601F08DF801220221AA
:1054F000304601F0BDF80121304601F0AEF80CB0A5
:1055000070BD08B500F083F84FF4E06000F092FB46
:1055100025208DF8000000208DF801008DF8020094
:105520008DF80300684600F08AFB08BD10B5012124
:105530008CB0084600F00EFE574C143C204600F09C
:10554000F5FF564800905648002100680190102051
:1055500002901C20CDE903018020CDE90501202027
:10556000CDE907100002CDE909016946204601F0A6
:105570004AF801220221204601F07AF80E208DF827
:10558000000003208DF8010002208DF802000120A8
:105590008DF80300684600F052FB0CB010BD30B52A
:1055A00001218BB0084600F0D5FD3B4D284600F0A8
:1055B000BDFF3A4800903B480024CDE901040A2091
:1055C000CDE903048020CDE905042020CDE9074082
:1055D0000002CDE909046946284601F014F80122C9
:1055E0000221284601F044F84FF4C06000F022FB8D
:1055F0000F208DF8000001208DF801008DF8024089
:105600008DF80300684600F01AFB0BB030BD10B5F2
:1056100086B0012144F2040000F0A5FD4FF40070B3
:10562000ADF8100018208DF8130003201E4C8DF8E3
:10563000120004A9204600F0ACFB2015ADF81000C4
:1056400004208DF8130004A9204600F0A2FB4FF4BB
:10565000E13000900020ADF80400ADF80600ADF890
:105660000800ADF80C000D4C0C20ADF80A00241F0A
:105670006946204600F0F6FD01228021204600F018
:1056800086FE01224021204600F081FE01212046B5
:1056900000F05BFE06B010BD580002400438014027
:1056A00028000020DCC6002000080140642064219E
:1056B000491E0029FCDC401E0028F8DC70474289A6
:1056C00000690029114601D000F0D1BB00F0D1BB28
:1056D0002DE9F84304460121042000F044FDEB4885
:1056E0000325142601884288C38811438288DFF885
:1056F000A0831A43114302891143428911438289CD
:10570000C08911430143ADF800108DF802502827DD
:105710002CB18DF80360404600F0ABFB01E08DF842
:1057200003706946404600F034FB0121802000F000
:105730001AFDD648103001884288C38811438288F8
:105740001A43114302891143428911438289C08956
:1057500011430143ADF800108DF80250CD4D2CB12E
:105760008DF80360284600F084FB01E08DF803709B
:105770006946284600F00DFBBDE8F88370B5C44EBD
:105780000446C1B2304600F072FBE543E9B2304650
:1057900000F06FFB210ABF4C204600F068FBC5F308
:1057A00007212046BDE8704000F063BB2DE9F041C1
:1057B0000025B64FDFF8D8822C46012637F81410A2
:1057C000404600F040FB18B106FA04F0284385B2C9
:1057D000641C082CF2DBAD4F0024DFF8B8821037D0
:1057E000404637F8141000F02EFB28B104F10801F0
:1057F00006FA01F0284385B2641C082CF0DB284629
:10580000BDE8F081F8B50121082000F0ACFC4FF6AE
:10581000FF76ADF8006003249F4F8DF802401025FD
:105820008DF803506946384600F0B3FA0121102084
:1058300000F099FC6802ADF800008DF802408DF888
:1058400003506946954800F0A4FA95490120C1F833
:10585000B4010146000200F086FCADF800608DF84E
:1058600002408DF8035069468E4800F092FA0121FB
:10587000402000F078FCADF800608DF802408DF813
:1058800003506946884800F084FA0121202000F086
:105890006AFCADF800608DF802408DF8035069464F
:1058A000824800F076FA0121092000F05CFC012119
:1058B0007F4800F0FDFA01217E4800F0F9FA182037
:1058C000ADF800008DF802408DF803506946384667
:1058D00000F05FFAF8BD38B50446C068012100F059
:1058E00042FC6089ADF8000010208DF80300032011
:1058F0008DF802006946206900F04BFABDF80010EF
:10590000206900F0B4FA38BD2DE9F04100250120EE
:10591000FFF7DEFE012001F0D6FB5C490839486044
:10592000FFF770FF594E203605EBC50006EB00145B
:1059300004F17C00FFF7CFFF012104F15400FFF7D1
:10594000BEFE002104F16800FFF7B9FE0021201D12
:10595000FFF7B5FE04F1180001210746FFF7AFFE7F
:10596000FFF7A4FE00213846FFF7A9FE002104F14D
:105970002C00FFF7A4FE04F1400001210446FFF7CC
:105980009EFEFFF793FE00212046FFF798FE6D1C58
:10599000032DC9DB34E770B50E463C4900EBC0006F
:1059A0002031A1F1280201EB0015144642F21071DA
:1059B000606801F00DFC3046FFF7E0FE05F11800CD
:1059C00001210546FFF77BFEFFF770FE0021284608
:1059D000FFF775FE6068BDE8704001F085BC70B5EA
:1059E0000E462A4900EBC0002031A1F1280201EB4C
:1059F0000015144642F21071606801F0E9FB304670
:105A0000FFF7BCFE05F1400001210546FFF757FEF8
:105A1000FFF74CFE00212846FFF751FE6068BDE805
:105A2000704001F061BC70B5184900EBC000203136
:105A3000A1F1280201EB0015144642F210716068D2
:105A400001F0C6FB05F1680001210646FFF737FEAD
:105A500005F1540000210546FFF731FEFFF726FE51
:105A60000020FFF735FE00213046FFF728FEFFF744
:105A70009DFE608001212846FFF721FE0120FFF7EF
:105A800027FE606801F030FC608870BD3C0000209B
:105A900000080140001C0140000C014000100140C2
:105AA0000000224200200140001801400014014083
:105AB0000004300000023000F8B507460420164606
:105AC0000D468DF80000002409E02988384600F0D2
:105AD00028FF8DF80000A41CAD1CA4B2BF1CB4426A
:105AE00003D29DF800000428EFD03046F8BD10B571
:105AF0000346002004E000BF13F8014B0C54401C87
:105B00009042F9DB10BD2DE9F74FADF5816D0746E9
:105B100004208946DDF810548DF8000400F009FED9
:105B2000C7F309064FEA972BC6F580644FEA8B2B23
:105B3000A54200D8ACB2E8464FF4806A52466946A6
:105B40005846FFF7D4FF002006E0321818F802107C
:105B5000FF2903D1401C80B2A042F6D3A0422CD230
:105B6000584600F01BFE8DF800049DF80004042840
:105B700005D04FF0FF300DF2144DBDE8F08F00203E
:105B8000424605E019F800108319401CD15480B238
:105B9000A042F7D3524669464FEA0B00FFF78CFF4D
:105BA000A5420ED0A14427442D1B002654460BF5D8
:105BB000806BA542C2D8ACB2C0E7224649463846FF
:105BC000ECE700F0C2FDDDF81004D4E710B505E005
:105BD000435C845C44548354491C521E9142F7DB5D
:105BE00010BD70B515460C460646521E0021FFF743
:105BF000EDFF621E29463046FFF7E8FF621E304681
:105C0000BDE870400021E1E7024610B50020891E82
:105C10000AE0135C502B06D113185C78502C02D18B
:105C20009B78412B04D0401C8842F2DB4FF0FF30C0
:105C300010BD00002849084328490860704770B526
:105C40000F23C47801780122F4B1244C24684578EC
:105C500004F4E064C4F5E064240AC4F10406E340FB
:105C60008478B5401C402C4301F1E021230181F8E8
:105C70000034007800F01F018A404009800000F1E4
:105C8000E020C0F8002170BD01F01F0082404809EB
:105C9000800000F1E020C0F8802170BD104A114062
:105CA00001430E48001F016070470C4A121D002975
:105CB000116801D0014300E08143116070474FF04B
:105CC000E0210428086903D020F00400086170472F
:105CD00040F00400FAE700000000FA050CED00E0D7
:105CE00080FFFF1F914910B5884206D10121042091
:105CF00000F04BFA002104203BE08D49884206D198
:105D00000121082000F041FA0021082031E08949F2
:105D1000884206D10121102000F037FA002110201E
:105D200027E08549884206D10121202000F02DFA84
:105D3000002120201DE08149884206D10121402018
:105D400000F023FA0021402013E07D49884206D16B
:105D50000121802000F019FA0021802009E0794912
:105D600088420AD184150121204600F00EFA002154
:105D70002046BDE8104000F008BA10BD10B5012162
:105D8000084600F002FA0021BDE81040012000F0B2
:105D9000FCB9F0B5CA78002502F00F03D20601D590
:105DA0008A7813430A784FF00F0E12F0FF0F4FF06E
:105DB00001021DD0D0F800400F8802FA05F63740E6
:105DC000B74211D14FEA850C0EFA0CF724EA070707
:105DD00003FA0CF43C43CF78282F02D0482F02D08E
:105DE00002E0466100E006616D1C082DE4D304600A
:105DF0000C88FF2C1ED944685FF0000606F10807E6
:105E000002FA07F50F882F40AF420FD14FEA860CF8
:105E10000EFA0CF7BC4303FA0CF73C43CF78282F5B
:105E200000D14561CF78482F00D10561761C082E3E
:105E3000E4D34460F0BD4FF6FF7101800221817010
:105E40000421C17070470246002092680A4200D0C7
:105E500001207047806880B2704702460020D268F7
:105E60000A4200D001207047C06880B270470161CB
:105E70007047416170470AB10161704741617047E5
:105E8000C160704741F480328261816182618169C1
:105E9000806970472C4B10B51A684FF68074224009
:105EA00042EA00100843186010BD2849C8617047D5
:105EB000F0B5254C002801DAE36900E06368420D83
:105EC000120185B2C0F301579540C0F30346032F7A
:105ED00005D0C2020AD50322B240934307E023F063
:105EE0007062636823F07063636002E0AB4343F069
:105EF000706201B12A43002801DAE261F0BD6260FC
:105F0000F0BD10B58A0721F003040F49130F214497
:105F10000F228C689A4094438C608A6898400243B0
:105F20008A6010BD0949C1F8DC00704700080140D3
:105F3000000C014000100140001401400018014015
:105F4000001C0140002001400000014000002042F0
:105F5000A448016841F0010101604168A24A114072
:105F600041600168A14A11400160016821F480216B
:105F70000160416821F4FE0141604FF41F0181601E
:105F8000704798490A6822F480320A600A6822F44D
:105F900080220A60B0F5803F07D0B0F5802F03D192
:105FA000086840F4A02008607047086840F480301A
:105FB000F9E70246002053098A49012B0AD0022B37
:105FC0000AD0496A02F01F02012393400B4200D01D
:105FD000012070470968F5E7096AF3E718B5002062
:105FE0004FF4A06400903120FFF7E3FF0099491CB3
:105FF0000091A14201D00028F5D03120FFF7D9FF50
:10600000002800D0012018BD76490A6822F0F80265
:1060100042EAC00008607047754908607047714ADD
:106020005368084323F47C13184350607047704949
:10603000086670476B4A516821F0030101435160C3
:1060400070476848406800F00C007047654A516826
:1060500021F0F001014351607047624A516821F418
:10606000E0610143516070475E494A6822F4605222
:1060700042EAC000486070475A4A0029517A01D06C
:10608000014300E08143517270475949C1F8D8007B
:106090007047544A516821F44041014351607047B0
:1060A0005049002281F8202081F82020012802D0C8
:1060B000042802D1052081F8200070474D4908606E
:1060C000704748490A6A02430A627047494944399D
:1060D0000860704730B543494A6812F00C03464ADD
:1060E00003D0042B01D0082B21D002604A680F2373
:1060F000424C03EA1212A35C0268DA4042604B6829
:10610000072505EA1323E35C22FA03F383604B6857
:1061100005EAD323E35CDA40C2604968032303EA5B
:106120009131231F595CB2FBF1F1016130BD4A6826
:106130004B6802F470124FF0020413F4803F04EB3A
:10614000924202D04B689B0301D52D4B00E02A4BB5
:106150005A43CAE7234A0029516901D0014300E0AC
:106160008143516170471F4A0029916901D0014361
:1061700000E08143916170471A4A0029D16901D03A
:10618000014300E08143D1617047164A0029D1687C
:1061900001D0014300E08143D1607047114A0029DA
:1061A000116901D0014300E0814311617047114939
:1061B0004039086070470E49C86470470949C87182
:1061C00070470848416A41F0807141627047054A52
:1061D0000146002092680A4200D001207047014920
:1061E00088727047001002400000FFF8FFFFF6FEC3
:1061F000000042428004424200127A001002002055
:1062000000093D00C44910B588420AD101218C0320
:106210002046FFF7BAFF2046BDE810400021FFF7F7
:10622000B4BFBE49884202D101214C0410E0BC49F0
:10623000884202D101218C040AE0BA49884202D185
:106240000121CC0404E0B84988420AD101210C059F
:106250002046FFF7A3FF2046BDE810400021FFF7CE
:106260009DBF10BD30B50446008A85B00D464CF682
:10627000FF710840E98801432182A1894EF6F3109D
:106280000140A8882A8910436A890A431043A081E3
:10629000A08A4FF6FF410840A9890143A1826846C0
:1062A000FFF718FF9C48844201D1039800E0029850
:1062B000A189090400EBC00101EB0010296801D598
:1062C000490000E08900B0FBF1F06422B0FBF2F17C
:1062D00009010B096FF018056B4300EB8300A389DC
:1062E0001D044FF0320306D503EBC000B0FBF2F003
:1062F00000F0070005E003EB0010B0FBF2F000F047
:106300000F000843208105B030BD4FF416510160E5
:1063100000218180C18001810C22428181817047EE
:1063200010B5038A4FF2FF0213400A884C882243BB
:106330008C88C9880C4322431A43028210BD002175
:10634000018041808180C18070470029818902D00D
:1063500041F4005101E021F400518181704710B5F2
:10636000C1F3421301F01F040121A140012B07D00A
:10637000022B07D01430002A026805D00A4304E03B
:106380000C30F8E71030F6E78A43026010BD002AAF
:10639000828A01D00A4300E08A4382827047028ADF
:1063A00022F00F020282028A0A4302827047828927
:1063B00022F40062828182890A4382817047002927
:1063C000818902D041F0020101E021F002018181C6
:1063D0007047028A22F020020282028A0A43028265
:1063E00070470029018A02D041F4804101E021F484
:1063F000804101827047C1F3080181807047808825
:10640000C0F308007047818941F001018181704724
:10641000028BD2B20283028B42EA012101837047D0
:10642000028B02F47F420283028B0A43028370478D
:106430000029818A02D041F0200101E021F02001F1
:10644000818270470029818A02D041F0100101E069
:1064500021F01001818270470029818A02D041F029
:10646000080101E021F0080181827047002981893B
:1064700002D041F4004101E0C1F30E018181704777
:106480000029818A02D041F4006101E021F4006119
:1064900081827047828A22F004028282828A0A43C1
:1064A000828270470029818A02D041F0020101E016
:1064B00021F00201818270470246002012880A42C0
:1064C00000D001207047C9430180704730B501F00A
:1064D0001F0201240025C1F3421304FA02F2012B2A
:1064E0000FD0022B0FD0838A4FEA1121008813426C
:1064F00004FA01F400EA040001D000B101252846A5
:1065000030BD8389F0E7038AEEE70A0A0121914052
:10651000C94301807047000000380140004400403A
:1065200000480040004C00400050004001684FF619
:10653000FE72114001600021016041608160C16014
:106540006A496A4A0839904203D1486840F00F000E
:1065500006E0664A1432904204D1486840F0F000E8
:1065600048607047614A2832904203D1486840F43D
:106570007060F5E75D4A3C32904203D1486840F4D0
:106580007040EDE7594A5032904203D1486840F4D8
:106590007020E5E7554A6432904203D1486840F4E0
:1065A0007000DDE7514A7832904203D1486840F0EC
:1065B0007060D5E74E4A111F904203D1086840F041
:1065C0000F0006E04A4A1432904204D1086840F0B5
:1065D000F00008607047464A2832904203D10868AC
:1065E00040F47060F5E7424A3C32904203D10868BB
:1065F00040F47040EDE73E4A50329042EAD10868DC
:1066000040F47020E5E730B5036847F6F072934335
:106610000C6A8A682243D1E904452C4322438C69E1
:106620002243CC6922434C6A22438C6A22431A4398
:106630000260CA6842600A6882604968C16030BD11
:106640000021016041608160C1600161416181613F
:10665000C16101624162816270470029016802D014
:1066600041F0010102E04FF6FE72114001607047F7
:10667000002A026801D00A4300E08A4302607047A2
:1066800041607047406880B2704701460020CA00F0
:1066900002D5174A083A01E0144A083A12680A4239
:1066A00000D001207047C10003D51149091F0860BF
:1066B00070470E4908394860704701460020CA00FB
:1066C00002D50B4A083A01E0084A083A12680A4221
:1066D00000D001207047C10003D50549091F08609B
:1066E00070470249083948607047000008000240BE
:1066F00008040240FC4A116801F0380101431160AE
:106700007047F9490A6822F008020A600A680243E1
:106710000A607047F4490A6822F010020A600A68A9
:1067200002430A607047F048F0494160F049416017
:106730007047ED48ED494160ED4941607047EA48D6
:10674000016941F0800101617047E748016941F04A
:10675000800101617047E4490420CA68D20701D072
:1067600001207047CA68520701D502207047C968E6
:10677000C906FBD50320704700B50346FFF7EBFFC2
:1067800003E000BFFFF7E7FF5B1E012803D0002BEB
:1067900000D1052000BD002BF4D1FAE770B5054605
:1067A0004FF430263046FFF7E7FF042811D1CE4CD6
:1067B000206940F0020020616561206940F04000DE
:1067C00020613046FFF7D8FF216941F6FD72114084
:1067D000216170BD30B54FF430252846FFF7CCFF5E
:1067E000042810D1C04C206940F0040020612069C9
:1067F00040F0400020612846FFF7BEFF216941F6C6
:10680000FB721140216130BD00B50346FFF7A3FFC5
:1068100003E000BFFFF79FFF5B1E012803D0002BA2
:1068200000D1052000BD002BF4D1FAE730B54FF4BC
:1068300030252846FFF7E8FF042810D1AA4C20692C
:1068400040F004002061206940F0400020612846AB
:10685000FFF7DAFF216941F6FB721140216130BD7B
:10686000A1490020C969890700D50120704770B58A
:10687000A525FFF7F5FF00B100254FF4302630467F
:10688000FFF77AFF042827D1974C9848A0609848D2
:10689000A060206940F020002061206940F04000A5
:1068A00020613046FFF768FF41F6EF7604280ED1ED
:1068B000206941F6DF7108402061206940F0100036
:1068C00020618C4805804FF40050FFF755FF0528E4
:1068D00002D021693140216170BDF8B50646002023
:1068E0004FF4005C00900D466046FFF745FF04281A
:1068F00016D17D4C206940F0010020613580604652
:10690000FFF73AFF41F6FE77042806D1B61C280CA3
:10691000009630806046FFF72FFF216939402161E2
:10692000F8BDF0B506464FF400570D463846FFF760
:1069300023FF04280CD16C4C206940F00100206139
:1069400035803846FFF718FF2169BA1E11402161D2
:10695000F0BDF0B506464FF400570D463846FFF738
:106960000BFF042813D1604C6048A0606048A06011
:10697000206940F01000206135803846FFF7FCFEAA
:10698000052804D0216941F6EF7211402161F0BD64
:106990002DE9F041C04300F0FF0CC0F30727C0F31E
:1069A0000746050E4FF400584046FFF7E5FE042861
:1069B00037D14D4C4D49A1604D49A160216941F04D
:1069C00010012161BCF1FF0F08D04A480830A0F83F
:1069D00000C04046FFF7D0FE04281BD1FF2F07D090
:1069E00044480A3007804046FFF7C6FE042811D10C
:1069F000FF2E07D03F480C3006804046FFF7BCFE14
:106A0000042807D1FF2D07D03A480E3005804046B4
:106A1000FFF7B2FE052804D0216941F6EF7211405C
:106A20002161BDE8F08170B505464FF4302630464F
:106A3000FFF7A2FE042818D12B4C2C48A0602C484C
:106A4000A060206940F020002061206940F04000F3
:106A500020613046FFF790FE41F6DF71042805D033
:106A6000052802D022690A40226170BD20690840D1
:106A70002061206940F0100020611E480DB1002106
:106A800000E0A52101803046FFF776FE0528ECD016
:106A9000216941F6EF721140216170BDF0B5124CD1
:106AA0000746124816460D46A0601148A0604FF4F4
:106AB000005C6046FFF760FE042814D1206940F0B6
:106AC0001000206135430B493D43891C45F0F80017
:106AD00008806046FFF750FE052804D0216941F682
:106AE000EF7211402161F0BD002002402301674593
:106AF000AB89EFCD00F8FF1F1C48C06980087047C4
:106B00001A48006A7047194900200968890600D5AB
:106B100001207047154A0029116901D0014300E0A6
:106B200081431161704701460020104A012903D0BA
:106B3000D2680A4203D17047D169C907FBD001204E
:106B400070470A49C860704708490420CA68D207DC
:106B500001D001207047CA68520701D50220704752
:106B6000C968C906FBD50320704700000020024019
:106B70000246002005E000BF401C02F8013BC0B205
:106B8000491C0B78002BF7D10021117070472DE9BB
:106B9000F0410546FE480F461446007808B1112022
:106BA00009E0287801280AD0022808D0032806D056
:106BB000042804D0012010700020BDE8F08100F00E
:106BC00017FE064605F10F013846FFF7D1FF0546CF
:106BD000304600F011FE002020702846EDE7014607
:106BE000002002E0401CC0B2491C0A78002AF9D1FA
:106BF00070472DE9F0410546E5480E4614460078F9
:106C000008B1122009E02878012808D0022806D00F
:106C1000032804D0042802D001201070CDE700F032
:106C2000E7FD07463046FFF7DAFF0F2804D938465C
:106C300000F0E2FD0B2008E0314605F10F00FFF700
:106C400097FF384600F0D8FD00202070B5E7D04C03
:106C500000F0CEFD6169491C616100F0CDFD00F0DE
:106C600089FDF5E7002203E0491E00F8012B89B2F7
:106C70000029F9D1704730B587B000F077FDC44CDA
:106C8000002323706370A3716371A3606361237138
:106C900004F110014FEA0300401CC0B201F8013BAF
:106CA0000428F9D3A370E37023624FF4D261B9488A
:106CB000A361FFF7D7FFB74880218038FFF7D2FFE5
:106CC000B448002200F150013F25416180F8405056
:106CD00080F84130521CD2B250305031142AF4D3D3
:106CE000436180F8405080F84130AA486362E06117
:106CF0004FF4A071A0F57070FFF7B4FFA648002212
:106D000000F1200100F8043B521C40F80B1B92B22A
:106D100000F8015B203100F8103B092AF2D3037020
:106D20004360C57303749C48E06080210320029196
:106D3000CDE90330994A4FF6FF70CDE900021F23D9
:106D400002F5FE720021AFF2F90000F077FB05AA10
:106D500093A11F2000F093FC07B0BDE8304000F085
:106D600006BD8B494879012804D10878FF2801D253
:106D7000401C0870704770B5854C6079012823D19C
:106D800000F036FD0546207820B1401E10F0FF00CF
:106D9000207014D1607890B900F072F9E078A17891
:106DA00088420CD07B49803951F820002062C16AAA
:106DB000491CC162A068401CA06000F035FD284657
:106DC000BDE8704000F018BD70BD10B5704C607922
:106DD00000280DD100F054F96E49E0788039A07098
:106DE00051F820002062A061BDE8104000F007BD0E
:106DF00010BD70B5664D6879012831D16C6A2BE001
:106E000000F0F6FC218C21B3491E0904090C2184F1
:106E10001FD194F8221011F0370F05D021F037015F
:106E200084F82210012100E0002184F8231094F856
:106E3000221009070DD494F828102A7911432971DA
:106E4000534994F82620103194F827608B5C334323
:106E50008B54646900F0D0FC94F824001F28CFD133
:106E600070BD4FF48F707047704710B590F82620B2
:106E700090F827408B18DA7AA243DA7204D18A7A22
:106E800090F8280082438A7210BD70B50146847A5A
:106E900047480026045D0D19ED7A405D00EBC40003
:106EA000C5B23C48803850F82500068490F822602E
:106EB000964380F8226080F8233032070BD4344A9E
:106EC00090F82830167933431371103290F8276008
:106ED000135D33431355FFF7C8FF284670BD30B527
:106EE0002B4900F10B028B6943F81C0F9C7ADB7A6B
:106EF000A55C1D43A5548A69837A92F828402343F0
:106F0000837292F8260001F1100492F82750235C56
:106F1000AB43235404D192F8282008799043087198
:106F200030BD00228272114610F10B00491CC9B21B
:106F300000F8012B0429F9D3704705E011F8013B53
:106F4000521E00F8013B92B2002AF7D1704770B58B
:106F500000F04EFC0E4C05462078A0B9607890B940
:106F600000F08EF80B49E078803951F8201021624A
:106F7000A278904207D0C86A401CC862A068401C32
:106F8000A06000F04CFC2846BDE8704000F034BC26
:106F900020020020A8CA0020E8C6002028C800203F
:106FA00075432F4F532D49492049646C65000000FB
:106FB000D88B00082DE9F05F9846DDE90ABA9146C2
:106FC0000D46074600F014FC334EF469002C53D0F4
:106FD00061690C34F16100F00FFC44F80C5C277619
:106FE0000025A575E575A582C4F800B044E902A99D
:106FF0000C98A080A4F806806577F908A17607F0C0
:107000000702012000FA01F1627621779040E076D4
:1070100025612562A5626562E5623F20256384F8EB
:10702000340084F835500C3C204600F0E0FB20464C
:1070300000F09EFB00F0DCFB0146184840F82740BA
:10704000706AC4E9050500B18461746294F828008F
:10705000327910433071104814F8262F10306478BC
:10706000835C23438354B079401CB071084600F020
:10707000C3FB0020BDE8F09F00F0BEFB4220F9E713
:107080000549074A01F110030879105C1B5CD25CCA
:1070900002EBC000C87070472002002028CA002000
:1070A000D88B000870B505460078032801D0002071
:1070B00070BD00F09DFB2C890CB1611E298100F090
:1070C0009BFB204670BD70B50546B948007808B1F5
:1070D000002070BD00F08CFB0146B64804680CB17E
:1070E00062680260084600F087FB54B103202070FC
:1070F000258100203F216060E17320742046FFF766
:1071000010FF204670BD2DE9F04704460078884600
:107110001546032801D0012003E0A548007810B1EE
:107120000F2010701DE000F063FB0746A07A08B145
:10713000012600E000265FEA0800DFF878924FF0B1
:107140003F084FF0000A06D0012826D0384600F04C
:1071500053FB072004E03EB1384600F04DFB4920C8
:1071600028702046BDE8F08784F80F8084F810A0CE
:1071700084F800A0D9F800106160A4F808A0564671
:107180003846C9F8004000F037FB2E701EE000239F
:10719000012219462046FFF778FEA07A0028F6D192
:1071A00084F80F8084F810A084F800A0D9F800209B
:1071B0006260A4F808A0D0463846C9F8004000F044
:1071C0001BFB0EB1FFF7C3FE85F800800020C9E766
:1071D0002DE9F0470646007889461446032801D079
:1071E000012008E07248007808B1022003E07248EC
:1071F000007810B10D201070B4E700F0F9FA0746DE
:107200003089002530B1401E3081384600F0F4FA54
:107210002570A7E7DFF8A481D8F8000010F8221F36
:1072200041F001010170457020F8029C3046FFF7E3
:1072300056FE384600F0E0FAFFF789FE00F0D8FA73
:107240000746D8F8000090F8231031B1022906D083
:107250003146FFF70AFE0A2002E0257001E00E2009
:107260002070D8F8000080F8225080F82350C561C3
:107270003846BDE8F04700F0BFBA2DE9F0410F46AF
:107280000546017801201646032901D0107029E037
:1072900000F0AEFA8046A87AF8B10024012F10D091
:1072A0000223012200212846FFF7EFFD012440467A
:1072B00000F0A2FAFFF74BFE0E2030702046BDE82A
:1072C000F0810223012200212846FFF7DEFD641C25
:1072D000A87AE4B20028F4D1E9E7404600F08CFA3D
:1072E000002030700020EAE770B5044600780328DB
:1072F00001D0012070BD00F07BFA0546A07A58B19C
:107300000023012219462046FFF7BFFD284600F062
:1073100073FAFFF71CFE09E020894FF6FF718842DF
:1073200006D2401C2081284600F066FA002070BD7D
:10733000284600F061FA322070BD70B5054600782D
:107340000C46032801D0012070BD00F051FA03461D
:10735000A87AA071A21C05F10B000021491C10F8AD
:10736000016BC9B202F8016B0429F7D32889208088
:10737000184600F041FA002070BD70B50446007850
:107380000E461546032802D00120107070BD00F093
:107390002FFA00212970218939B9A17A29B149210F
:1073A0002970BDE8704000F027BA2681F9E7000097
:1073B000200200202C0200202102002038020020A0
:1073C0002DE9FE431C4615460F46804600F010FA94
:1073D000C549097821B100F00FFA3C20BDE8FE83D1
:1073E000C24E56F8241019B100F006FA2820F5E72D
:1073F000012146F8241000F0FFF900232A463946FF
:10740000404600F0B9F900250146009501952B464C
:107410002A4620460295FFF7CDFD070007D000F071
:10742000E7F946F8245000F0E7F93846D6E7B048C7
:1074300000780128F9D1FFF78AFDF6E72DE9FF4F23
:1074400083B01C46DDE91376DDE911A891468B4631
:1074500000F0CEF9A449097829B100F0CDF93C201B
:1074600007B0BDE8F08FA14D55F8241019B100F018
:10747000C3F92820F4E7012145F8241000F0BCF9F5
:1074800033464A465946039800F076F9CDF8008015
:10749000CDE90176014652462046109BFFF78AFD52
:1074A000060008D000F0A4F9002145F8241000F0EF
:1074B000A3F93046D4E78E4800780128F9D1FFF7C8
:1074C00046FDF6E72DE9F04706468748007810B1FB
:1074D0004020BDE8F0871F2E05D000F089F907464F
:1074E000FF2E02D005E03E20F3E78248006890F8C6
:1074F0002460DFF8F89159F826405CB1012C0ED0D9
:1075000094F826107C4A94F82730505C98435054E5
:107510000AD00FE0384600F06FF94320D9E738462B
:1075200000F06AF93D20D4E7744894F828200178E7
:1075300091430170E16911B12046FFF796FC4FF0CD
:107540000008A4F820806E4D84F8228084F82380FF
:107550002878FF2801D2401C2870384600F04CF9EA
:10756000FFF782FC00F044F90746287808B1401E76
:107570002870204600F0FDF862490878401E087027
:1075800049F82680A1694046A1B162694A61D4E9FF
:1075900005128A615C490A6862610C603F2104F847
:1075A000401F6070384600F027F9514800780128E4
:1075B00006D007E06169554A886161691160E9E7B1
:1075C000FFF7C5FC002084E710B504461F2812D041
:1075D000FF2C12D000F00CF90146444850F824006A
:1075E000A8B1012818D03F2280F82920084600F0D1
:1075F00003F9002010BD3E2010BD00F0F9F83D4910
:10760000096891F8294000F0F7F8204610BD0846B7
:1076100000F0F2F8432010BD084600F0EDF83D20E0
:1076200010BD2DE9F04106462F480F46144600785C
:1076300010B11120107020E000F0DAF80546FF2E9E
:1076400003D12C48006890F82460284850F8261090
:10765000432671B101290CD038464031FFF788FA32
:107660000646284600F0C8F8002020703046BDE8E5
:10767000F081284600F0C0F826700020F7E72DE9D9
:10768000F0410546184888461446007810B112208B
:107690001070ECE700F0ACF80646FF2D03D115485A
:1076A000006890F824501148432750F825505DB1E8
:1076B000012D09D04046FFF792FA0F2809D930462C
:1076C00000F09AF841200DE0304600F095F8277060
:1076D000CDE7414605F14000FFF74AFA304600F099
:1076E0008BF800202070C2E72002002028CA00206A
:1076F0002502002038020020300200202402002051
:1077000021020020260200203C020020440200202A
:1077100070B504461148007800281DD1002C1BD0FC
:1077200000F066F803460E480E4D016891F82600F9
:1077300091F827602A5CB2432A5405D10A4891F88F
:1077400028500278AA4302700C84184600F054F8BE
:10775000BDE87040FFF7FBBB70BD000020020020B9
:1077600038020020300200202402002070477047B9
:1077700070477047704770474FF080731360131F56
:107780001860A2F108006FF001030360001F4FF0C2
:1077900012330360001F4FF003330360001F4FF0EC
:1077A00002330360001F5B100360001F0160001FB5
:1077B0004FF011310160001F19010160001F4FF0EF
:1077C00009310160001FD9000160001F4FF007312F
:1077D0000160001F4FF006310160001F4FF00531BE
:1077E0000160980042F83C0D1046704770477047A2
:1077F000EFF3108072B6704780F3108870471D4811
:107800004FF0FF010170002080F309881A48012120
:1078100001701A484FF08051016062B6FEE71748C8
:107820004FF080510160704714484FF08051016063
:10783000704772B6EFF3098028B1203880E8F00F66
:107840000F490968086000B50E4880475DF804EBF1
:107850000D480E490A78027009480D490A6802600D
:10786000106890E8F00F203080F309884EF0040E85
:1078700062B6704722ED00E02502002004ED00E032
:1078800038020020ED7700082202002023020020A9
:10789000400200200648804706480047FEE7FEE712
:1078A000FEE7FEE7FEE7FEE7FEE7FEE7FEE7FEE7B0
:1078B00059790008314500080CB500214B48019169
:1078C0000091026842F4803202604FF4A0630268C3
:1078D00002F400320092019A521C0192009A12B9ED
:1078E000019A9A42F3D10268920333D501210091A3
:1078F0003F490A6842F010020A600A6822F0030257
:107900000A600A6842F002020A6041684160416808
:107910004160416841F480614160416821F47C111B
:107920004160416841F4E8114160016841F08071B3
:10793000016001688901FCD5416821F003014160C3
:10794000416841F0020141604168C1F381010229AF
:10795000FAD10CBD00910CBD244810B5016841F06E
:10796000010101604168234A114041600168224AD7
:1079700011400160016821F480210160416821F417
:10798000FE0141604FF41F018160FFF795FF1B4925
:107990004FF00060086010BD144910B54868184ADF
:1079A00010F00C03174803D0042B01D0082B0AD089
:1079B00002604968134AC1F30311121D515C026849
:1079C000CA40026010BD4A684B6802F470124FF062
:1079D000020413F4803F04EB924202D04B689B03F5
:1079E00001D5094B00E0064B5A43E1E70010024085
:1079F000002002400000FFF8FFFFF6FE08ED00E067
:107A000000127A004802002000093D00D2B201E0D5
:107A100000F8012B491EFBD270470022F6E710B593
:107A200013460A4604461946FFF7F0FF204610BDEC
:107A30002DE9FE4F81EA030404F0004421F00041E7
:107A400000944FF0000B23F0004350EA01045ED095
:107A500052EA03045BD0C3F30A54C1F30A552C4421
:107A6000A4F2F3340194A0FB0254C1F3130141F4D6
:107A70008011C3F3130343F4801301FB024400FBA2
:107A8000034E840A970A44EA815447EA8357A4FBC9
:107A9000076802958D0A05FB07854FEA932C04FBC6
:107AA0000C542705029D4FEA065847EA1637B5EBF6
:107AB00008056EEB070C870E920E47EA811742EA23
:107AC0008312A7FB0201B6EB0B0164EB00042B0D44
:107AD00043EA0C335E1844EB1C50DA465146E7FB90
:107AE0000201C5F313044FEA0B3343EA14534FEA80
:107AF0000432019C43EA0603A4F10C040294009CA6
:107B0000CDE900B400F09AF803B0BDE8F08F002092
:107B10000146F9E70EB5C10F80EAE0700844CA07D4
:107B2000002140F233438DE80E000A460B4600F078
:107B300085F803B000BD70B5C1F30A5201F00045ED
:107B40000024C1F3130140F2FF3341F480119A4243
:107B500001DA002070BD40F233439A42A2F2334270
:107B600003DC524200F04DF800E090402C43F1D08D
:107B7000404270BD30B50B46014600202022012452
:107B800009E021FA02F59D4205D303FA02F5491BEB
:107B900004FA02F52844151EA2F10102F1DC30BD01
:107BA0002DE9F05F0546002092469B468846064632
:107BB000814640241BE0284641464746224600F0C5
:107BC00020F853465A46C01A914110D31146184620
:107BD000224600F0D5F92D1A67EB01084F462246E0
:107BE0000120002100F0CCF917EB00094E41201EC6
:107BF000A4F10104DFDC484631462A464346BDE88D
:107C0000F09F202A04DB203A21FA02F0002170477D
:107C100021FA02F3D040C2F12002914008431946F4
:107C2000704710B5002B08DA401C41F10001921892
:107C30005B411A4301D120F0010010BD2DE9F04D48
:107C400092469B4611B1B1FA81F202E0B0FA80F29D
:107C50002032904600F094F904460F4640EA0A00AC
:107C600041EA0B0153465A46084313D0114653EAE2
:107C7000010019D0C8F140025046FFF7C2FF054687
:107C80000E4650465946424600F07AF9084305D060
:107C9000012004E020463946BDE8F08D0020054370
:107CA00046EAE0762C4337430A986305E40AA0EBE2
:107CB00008000022FD0A44EA47540A3002D5002099
:107CC0000146E9E7010510196941DDE90845001998
:107CD0006941BDE8F04DA4E72DE9FE4F804681EAF9
:107CE0000300C00F0C46009021F0004123F0004536
:107CF000B8EB0200A94105D24046214690461C46F9
:107D00000B46024623F00040104347D0270DC7F32F
:107D10000A00C3F30A510290401A019040286BDA1E
:107D2000C3F3130040F4801B0098924620B1002357
:107D3000D2EB030A63EB0B0B01985946C0F14002EA
:107D4000504600F01DF906460D4650465946019A28
:107D500000F025F910EB08006141002487EA115278
:107D600084EAE7731A4340D0009A62B3019A012A69
:107D70004FEA075215DC001B61EB02014FF0004295
:107D800002EA0752CDE90042001C41F5801132465B
:107D90002B46FFF753FF03B0BDE8F08F4046214666
:107DA000F9E7001B61EB0201001C41F5801300188C
:107DB0005B412018A2F5001747EB030140EAD5709C
:107DC000B6196D4111E06D084FEA360645EAC075F7
:107DD0004FEA0752001B61EB0201001C41F58011C4
:107DE00049084FEA30000019514132462B4603B092
:107DF000BDE8F04FFFF715BF0098012240000023B7
:107E0000D0EB020263EBE073009821464FEAE07486
:107E1000B8EB000061EB0401E9E783F000435BE7A6
:107E200081F0004158E72DE9F04D81EA030404F0A8
:107E3000004B21F0004514464FF0000A23F00041AA
:107E400050EA050220D054EA01021DD0C5F30A57BA
:107E50000246C5F31303C1F31300C1F30A5640F4FD
:107E6000801543F48013A7EB0608101BD64608F2D2
:107E7000FD3873EB050002D308F1010801E0921808
:107E80005B41B8F1000F03DA00200146BDE8F08D38
:107E900000204FF48011064684460EE0171B73EB5A
:107EA000050705D3121B63EB050306434CEA010CDF
:107EB00049084FEA300092185B4150EA0107EDD1C2
:107EC00052EA030012D082EA040083EA0501084363
:107ED00005D0101BAB4106D20122002306E0002290
:107EE0004FF0004302E06FF0010253101AEB06005E
:107EF0004CEB085110EB0A0041EB0B01BDE8F04DD3
:107F0000FFF78FBEC1F30A52C1F3130140F2FF33F2
:107F100041F480119A4202DA00200146704740F293
:107F200033439A42A2F2334202DC5242FFF769BE67
:107F300000F026B830B5002904DB4FF00044404281
:107F400064EB0101002B04DB4FF00044524264EB70
:107F50000303994208BF904230BD0000064C074D14
:107F600006E0E06840F0010394E807009847103409
:107F7000AC42F6D3FCF7E0FAD88C0008F88C000885
:107F8000202A04DB203A00FA02F1002070479140D9
:107F9000C2F1200320FA03F3194390407047202ACE
:107FA00006DBCB17203A41FA02F043EAE07306E021
:107FB00041FA02F3D040C2F1200291400843194631
:107FC000704770B58C1810F8015B15F0070301D1EC
:107FD00010F8013B2A1106D110F8012B03E010F82C
:107FE000016B01F8016B5B1EF9D12B0705D400234F
:107FF000521E0DD401F8013BFAE710F8013BCB1AF1
:10800000921C03E013F8015B01F8015B521EF9D5E5
:10801000A142D8D3002070BD0FB4054B10B503A901
:10802000044A029800F03CFA10BC5DF814FB000012
:108030003D5000085C0200200FB4084B10B504A9A5
:1080400002AA039800F0CEF8044602A9002000F02E
:10805000BEFD204610BC5DF814FB0000CF8B00086D
:1080600002E008C8121F08C1002AFAD17047704701
:10807000002001E001C1121F002AFBD1704700005F
:108080002DE9FF5FDDE90220010DDDF838B0024384
:1080900018D044F61050A1F2FF3141430D140F984F
:1080A000012820D0A5EB0B00401C5FEA000A4FF02E
:1080B0000004474EDFF81C91A046504616D5CAF181
:1080C000000728E00F98012443A2012808D00021CE
:1080D00000980F9BC0E90021C0E90243BDE8FF9F63
:1080E0006FEA0B01F4E7CBF10000DEE7074612E090
:1080F000F80707D02246334640464946FFF798FC2A
:10810000804689462246334610461946FFF790FCC2
:1081100004460E467F10002FEAD1DDE90201BAF1D4
:10812000000F42464B4602DAFFF782FC01E0FFF700
:108130007AFE04460E460022284BFFF7FBFE03D8CA
:108140004FF0FF30014607E00022254B2046314624
:10815000FFF7C2FDFFF7D6FE102409E0002C0ADB72
:108160000A220023FFF71CFD019B30321A55641EC2
:1081700050EA0102F2D1641C019AC4F111031444C3
:108180000F9A012A03D0012208430DD10AE00843C7
:1081900004D000204FF0110B0F9080E7A3EB0B05EC
:1081A0006D1E0DE05B4504DD4FF0000205F1010599
:1081B00004E003DA4FF00002A5F10105002AECD03B
:1081C00000980F99C0E90231C0E9004586E7000038
:1081D000000024400000F03F300000000000F043A9
:1081E0000000E03F2DE9FF4F8DB09B460F4604464F
:1081F000002606E025280BD05A460F999047641CAC
:10820000761C20780028F5D111B03046BDE8F08FFB
:108210000025A8460122974900E0054314F8013FD4
:10822000203B02FA03F00842F7D120782E2817D11C
:1082300014F8010F45F004052A280ED06FF02F0224
:108240002078A0F1300109290AD808EB880102EB57
:10825000410100EB0108641CF2E757F8048B641C31
:1082600020786C280DD004DC4C2812D06A2811D15B
:1082700004E074280DD07A280CD10AE045F40015EA
:1082800007E0617845F48015814202D1641C05F550
:108290008015641C2278692A45D008DC002AB3D0F6
:1082A000582A67D0632A10D0642A08D13BE0702A8C
:1082B00065D0732A13D0752A5AD0782A5AD010461E
:1082C0005A460F999047761CD1E017F8040B8DF8A9
:1082D000000000208DF80100E946012003E057F876
:1082E000049B4FF0FF3069074FF0000501D40AE00E
:1082F0006D1C45450DDA8542FADB19F80510002999
:10830000F6D106E06D1C8542FCDB19F8051000294A
:10831000F8D12E4404E019F8010B5A460F99904702
:108320006D1EF8D2A3E00A200021CDE90801C5F3B3
:10833000025002280BD001CFC11700290DDA4FF0EF
:10834000000CD0EB0C006CEB01012D2308E0FF1DAD
:1083500027F00707F7E80201EFE72B0504D52B23E9
:108360008DF8283001233BE0EB0739D02023F7E7D5
:108370000A2000E010200021CDE9080107E01020CC
:10838000002145F00405CDE908014FF00808C5F3C8
:10839000025002280FD001CF00214FF0000A2B0716
:1083A0001FD5702A0DD0DDE908C38CF0100C5CEAF3
:1083B000030C0CD015E0FF1D27F00707F7E80201BA
:1083C000EBE740228DF828204FF0010A0BE050EA3D
:1083D000010306D030238DF828308DF829200223A0
:1083E0009A46582A04D024A20DF120090B9209E0E4
:1083F00026A2F9E7DDE90823FFF7D2FB0B9B9B5C84
:1084000009F8013D50EA0102F4D1ADEB090020303A
:108410000890680701D44FF001080899884502DDEB
:10842000A8EB010000E000208046002506E00AA835
:108430005A46405D0F9990476D1C761C5545F6DBFA
:1084400004E030205A460F999047761CB8F100019D
:10845000A8F10108F5DC05E019F8010B5A460F995F
:108460009047761C0899481E08900029F4DC641C8B
:10847000C7E6000009280100303132333435363781
:108480003839616263646566000000003031323360
:108490003435363738394142434445460000000000
:1084A0002DE9FF4F95B09B468946064600250FE211
:1084B000252877D100242746F84A0121059400E0B9
:1084C000044316F8013F203B01FA03F01042F7D1B4
:1084D00030782A2811D06FF02F033078A0F13002C5
:1084E000092A16D8059A44F0020402EB820203EB33
:1084F00042021044761C0590EFE759F8042B0592D0
:10850000002A03DA504244F40054059044F0020477
:10851000761C30782E2816D116F8010F44F004048A
:108520002A280DD06FF02F023078A0F13003092BEC
:1085300009D807EB870302EB4303C718761CF3E760
:1085400059F8047B761C30786C280FD006DC4C2858
:1085500017D068280DD06A2814D104E0742810D0F0
:108560007A280FD10DE044F400140AE044F480149A
:1085700001E044F440147278824202D104F5801480
:10858000761C761C307866280BD013DC582877D000
:1085900009DC002875D04528F6D04628F4D04728B5
:1085A0001AD19DE118E0632835D0642879D0652878
:1085B00012D195E1702873D008DC6728F1D06928C2
:1085C0006FD06E280DD06F2806D1B5E073282CD05F
:1085D000752875D0782874D05A46179990476D1C25
:1085E00075E1C4F30250022809D003280DD0D9F850
:1085F000001004280DD00D6009F1040967E1D9F8D5
:108600000010EA17C1E90052F6E7D9F800100D8012
:10861000F2E70D70F0E719F8041B8DF80010002048
:108620008DF80100EA46012003E059F804AB4FF051
:10863000FF3061074FF0000102D40DE008F10101A5
:108640008846B9420FDA8045F8DB1AF8081000298D
:10865000F4D108E008F1010188468142FADB1AF8FA
:1086600008100029F6D105985B46A0EB08072146C3
:108670003846179A00F094FA284400EB080507E002
:108680004DE029E10DE01AF8010B5A461799904781
:10869000B8F10108F7D25B4621463846179A13E134
:1086A00042E00A220092C4F302524FF0000A022A6A
:1086B00008D059F804CB032A4FEAEC710AD00DE038
:1086C00029E02AE009F1070121F00702F2E802C1DE
:1086D000914609E00FFA8CFC4FEAEC71042A03D1B1
:1086E0004FFA8CFC4FEAEC71002907DA0A460021A8
:1086F000DCF1000C61EB02012D2202E0220504D521
:108700002B228DF80420012203E0E20701D0202271
:10871000F7E7904659E00A2102E010220DE010210F
:108720004FF0000A00910BE010224FF0000A44F0D5
:1087300004040827009203E008224FF0000A009288
:10874000C4F30252022A05D059F804CB0021032AAF
:1087500008D009E009F1070121F00702F2E802C19F
:10876000914605E01FFA8CFC042A01D10CF0FF0CA5
:108770004FF00008220728D5702806D0009B83F010
:10878000100353EA0A0305D00EE040228DF80420BE
:10879000012208E05CEA010206D030228DF80420B4
:1087A0008DF8050002229046009B83F0080353EAEF
:1087B0000A030AD15CEA010201D1620705D5302221
:1087C0008DF804204FF001087F1E582804D034A0F3
:1087D00003900EA802900DE036A0F9E753466046DC
:1087E000009AFFF7DDF984460398825C0298401EE8
:1087F000029002705CEA0100F0D1029806A9081A02
:1088000000F1200A600702D524F4803400E001273B
:10881000574502DDA7EB0A0000E0002000EB0A014B
:10882000009005984144401A0590E00306D45B4649
:108830002146179A059800F0B3F90544002706E091
:1088400001A85A46C05D179990476D1C7F1C47458B
:10885000F6DBE0030CD55B462146179A059800F03D
:108860009FF9054404E030205A46179990476D1C43
:108870000099481E00900029F5DC08E00298029952
:108880005A460078491C0291179990476D1CBAF11D
:108890000001AAF1010AF1DC65E1000009280100EC
:1088A0003031323334353637383961626364656666
:1088B0000000000030313233343536373839414228
:1088C000434445460000000000F058F90544761C7A
:1088D000307800287FF4ECAD19B02846BDE8F08F61
:1088E000620700D4062709F1070222F0070CFCE812
:1088F0000223E14603F000485FEA080C02D00FF2C1
:10890000702C0DE05FEA045C02D50FF2682C07E0E2
:108910005FEAC47C02D00FF2602C01E0AFF2700C71
:108920004FF0FF3823F00043CDF850C065280CD03D
:1089300006DC452809D046281DD047283DD13DE01A
:10894000662818D067287ED138E00021112F01DB7E
:10895000112000E0781CCDE9000106A90EA8FFF760
:108960008FFBDDE90F010E9A03910021009207F1C0
:10897000010A04914DE04FF000400097CDE901104D
:1089800006A90EA8FFF77CFBDDE90F0203920E9B00
:1089900011990022DDF80CA00093049211B9791C02
:1089A00000EB010AB7EB0A0004D4C0F1FF3007F175
:1089B000010A0490AAEB0700019044E0012F00DABD
:1089C00001270021112F01DD112000E03846CDE9FB
:1089D000000106A90EA8FFF753FBDDE90F010E9A6F
:1089E0000391002104910092BA4621070CD4039907
:1089F000514500DA8A46BAF1010F05DD009AAAF165
:108A00000101515C302908D0B84202DA10F1040F9C
:108A100006DA0121CDE9011015E0AAF10101E9E72B
:108A2000002805DC049901440491AAEB000102E04E
:108A3000411C514500DD8A460499401A401C0190B2
:108A40004FF000400290200704D40198504501DB0C
:108A5000CDF8048000208DF84F0002980DF14F07EB
:108A6000B0F1004F25D02B200E9002984FF0020855
:108A700000280CDA404202902D200E9007E00A21D7
:108A80000298FFF777F83031029007F8011DB8F12E
:108A90000001A8F10108F2DC02980028EFD1791E4C
:108AA0000E980870307800F0200040F0450007F87C
:108AB000020D12A8C01B00F107081498007800B13D
:108AC000012000EB0A01019801EBE0710598414497
:108AD000401A401E0590E00306D45B462146179AD3
:108AE000059800F05DF805441498007818B15A46CE
:108AF000179990476D1CE00324D55B462146179AD1
:108B0000059800F04DF805441CE00498002807DBA8
:108B1000DDE90301884203DD0098405C179901E01C
:108B2000179930205A469047049805F10105401CDA
:108B300004900198401E019004D12E205A461799A6
:108B400090476D1CBAF10001AAF1010ADDDC05E0D5
:108B500017F8010B5A46179990476D1CB8F10001A0
:108B6000A8F10108F4DC5B462146179A0598ABE6AC
:108B70002D0000002B000000200000002DE9F04136
:108B8000044600251E461746880404D405E03946ED
:108B90002020B0476D1C641EF9D52846BDE8F08141
:108BA0002DE9F041044600251E469046C80301D534
:108BB000302700E02027880404D505E041463846E8
:108BC000B0476D1C641EF9D52846BDE8F0810A68DF
:108BD000531C0B6010707047000001000200010080
:108BE0000300010002000100040001000200010076
:108BF0000300010002000100050001000200010065
:108C00000300010002000100040001000200010055
:108C10000300010002000100060001000200010043
:108C20000300010002000100040001000200010035
:108C30000300010002000100050001000200010024
:108C40000300010002000100040001000200010015
:108C50000300010002000100070001000200010002
:108C600003000100020001000400010002000100F5
:108C700003000100020001000500010002000100E4
:108C800003000100020001000400010002000100D5
:108C900003000100020001000600010002000100C3
:108CA00003000100020001000400010002000100B5
:108CB00003000100020001000500010002000100A4
:108CC0000300010002000100040001000200010095
:108CD0000300010002000100F88C000800000020E1
:108CE00060020000C27F0008D08D000860020020F2
:108CF000D8D20000708000088113DCC60230201238
:108D0000011202120412081A103B1240FA8010419C
:108D1000200A446F6F725F4F455F414304403C1827
:108D20000140143A4C146A08145C46616E2711AA7B
:108D300010144927116A20144E53746174652ACAAD
:108D40004014392A6A80143B514438413B101006C4
:108D50009C014001901A425439F18A149019146A06
:108D600010145990191311AA08144927116A0414F0
:108D700079901242CA0114392A6A021419902938CA
:108D8000416A40909A02901243220829A18A2090B9
:108D900012437A041459901A430DB9143927111942
:108DA0005259147990DB438014292A7A401419907F
:108DB0001938517A80901B04068519232C0203046C
:108DC000040529060708091BA24AAD61A93C000059
:040000050800453179
:00000001FF
